:100A69003F065B4F666D7D077F6F777F393F7971F1
:100A540002140061020E00FC0216000102120000E2
:040A6400020A000082
:100A1700758910E4F50CF50DC3E50D9FE50C9E50A7
:100A27002B85158B850F8DE516451724FF928E3084
:100A37008FFDE512451324FF928EE50A450B24FF2F
:0D0A4700928F050DE50D70D0050C80CC22BE
:1009A40078197C007D007BFF7A0A79697E007F10CC
:1009B4001208D0E4F590C2B6C2B7C2B5D2B5E4F518
:1009C40009E50975F00A1208F6F511E50975F00A4A
:1009D4001208F685F018E4F510D2B6C2B7741925DA
:1009E40011F8E6F5907F0A7E00120A17C2B6D2B754
:1009F40074192518F8E6F590120A170510D3E510B6
:100A0400648094B240D30509D3E5096480948A4094
:030A1400B080AB04
:03000000020918DA
:0C091800787FE4F6D8FD75812802095FA5
:10080000E709F608DFFA8046E709F208DFFA803EDA
:1008100088828C83E709F0A3DFFA8032E309F608C7
:10082000DFFA8078E309F208DFFA807088828C832F
:10083000E309F0A3DFFA806489828A83E0A3F608E3
:10084000DFFA805889828A83E0A3F208DFFA804CBD
:1008500080D280FA80C680D4806980F28033801094
:1008600080A680EA809A80A880DA80E280CA8033FD
:1008700089828A83ECFAE493A3C8C582C8CCC58375
:10088000CCF0A3C8C582C8CCC583CCDFE9DEE78045
:100890000D89828A83E493A3F608DFF9ECFAA9F0C4
:1008A000EDFB2289828A83ECFAE0A3C8C582C8CC1A
:1008B000C583CCF0A3C8C582C8CCC583CCDFEADE33
:1008C000E880DB89828A83E493A3F208DFF980CC95
:1008D00088F0EF60010E4E60C388F0ED2402B4048E
:1008E0000050B9F582EB2402B4040050AF23234535
:0608F00082239008507302
:1008F600C2D530F707B2D563F0FF05F030E70CB28A
:10090600D5F4048463F0FF05F080018430D502F449
:020916000422B9
:100924000209A4E493A3F8E493A34003F68001F23C
:1009340008DFF48029E493A3F85407240CC8C333D4
:10094400C4540F4420C8834004F456800146F6DFA3
:10095400E4800B0102040810204080900A54E47ED5
:10096400019360BCA3FF543F30E509541FFEE49398
:10097400A360010ECF54C025E060A840B8E493A35F
:10098400FAE493A3F8E493A3C8C582C8CAC583CA8A
:10099400F0A3C8C582C8CAC583CADFE9DEE780BE42
:010A6800008D
:00000001FF
