:10090A00022E0061022A00FC02300001022C0000C3
:10091A00022600000D084D6963726F2D4C41426C2E
:10092A0065740011154526452C4E4D414D495420FC
:06093A004E495454450033
:06088C00D2B77F0A7E00D6
:10089200758910E4F528F529C3E5299FE5289E50BE
:1008A2002B852F8B852B8DE530453124FF928E30A1
:1008B2008FFDE52C452D24FF928EE526452724FF4A
:0D08C200928F0529E52970D0052880CC22F1
:1008CF00E4F5B0F590C2B5D2B51209417F80120997
:1008DF005A74082532F8E6FF600712096605328060
:1008EF00F0E4F5327FC012095A74152532F8E6FF8D
:0B08FF006007120966053280F080FEE1
:100941007F3812095A7F1012095A7F0C12095A7FF7
:090951000612095A7F0102095A3D
:0C095A008F90C2B612088CC2B70208923F
:0C0966008F90D2B612088CC2B702089223
:03000000020800F3
:0C080000787FE4F6D8FD758132020847CD
:10080C000208CFE493A3F8E493A34003F68001F22B
:10081C0008DFF48029E493A3F85407240CC8C333ED
:10082C00C4540F4420C8834004F456800146F6DFBC
:10083C00E4800B010204081020408090090AE47E39
:10084C00019360BCA3FF543F30E509541FFEE493B1
:10085C00A360010ECF54C025E060A840B8E493A378
:10086C00FAE493A3F8E493A3C8C582C8CAC583CAA3
:10087C00F0A3C8C582C8CAC583CADFE9DEE780BE5B
:0109400000B6
:00000001FF
