:10092C0002390061023300FC023B00010237000077
:10093C00022F0000101341444320492F5020566FC2
:10094C006C74616765000C233D205620202020200C
:10095C00202020000B08303132333435363738390B
:01096C00008A
:0608E900D2B77F0A7E0079
:1008EF00758910E4F531F532C3E5329FE5319E503D
:1008FF002B853A8B85348DE53B453C24FF928E301A
:10090F008FFDE537453824FF928EE52F453024FFC4
:0D091F00928F0532E53270D0053180CC2278
:0C09A7008F90C2B61208E9C2B70208EF38
:10098E007F381209A77F101209A77F0C1209A77FC3
:09099E00061209A77F010209A756
:0C09B3008F90D2B61208E9C2B70208EF1C
:10088C007580FFE4F5A0C2A6D2A7C2A512098E7F7F
:10089C00801209A774132536F8E6FF60071209B316
:1008AC00053680F0E4F5367FC71209A77413253698
:1008BC00F8E6600E74232536F8E6FF1209B3053608
:1008CC0080EA12096EAD07ED75F03284FC7FC81218
:0D08DC0009A774082CF8E6FF1209B380E5A7
:10096E00D2A600000000C2A600000020A7FDD2A55E
:10097E0000000000858035C2A500000000AF3522C2
:03000000020800F3
:0C080000787FE4F6D8FD75813C020847C3
:10080C0002088CE493A3F8E493A34003F68001F26E
:10081C0008DFF48029E493A3F85407240CC8C333ED
:10082C00C4540F4420C8834004F456800146F6DFBC
:10083C00E4800B010204081020408090092CE47E17
:10084C00019360BCA3FF543F30E509541FFEE493B1
:10085C00A360010ECF54C025E060A840B8E493A378
:10086C00FAE493A3F8E493A3C8C582C8CAC583CAA3
:10087C00F0A3C8C582C8CAC583CADFE9DEE780BE5B
:01096D000089
:00000001FF
