:1008E00002100061020C00FC02120001020E000066
:0408F00002080000FA
:10088C00758910E4F50AF50BC3E50B9FE50A9E503C
:10089C002B85118B850D8DE512451324FF928E301F
:1008AC008FFDE50E450F24FF928EE508450924FFC8
:0D08BC00928F050BE50B70D0050A80CC2251
:1008C900E4F5A0FDD2A47FE87E0312088CC2A4122D
:0608D900088C0DBD05EEC8
:0108DF0022F6
:03000000020800F3
:0C080000787FE4F6D8FD758113020847EC
:10080C000208C9E493A3F8E493A34003F68001F231
:10081C0008DFF48029E493A3F85407240CC8C333ED
:10082C00C4540F4420C8834004F456800146F6DFBC
:10083C00E4800B01020408102040809008E0E47E64
:10084C00019360BCA3FF543F30E509541FFEE493B1
:10085C00A360010ECF54C025E060A840B8E493A378
:10086C00FAE493A3F8E493A3C8C582C8CAC583CAA3
:10087C00F0A3C8C582C8CAC583CADFE9DEE780BE5B
:0108F4000003
:00000001FF
