:10094C0002420061023D00FC024400010240000032
:10095C0002390000101920707265737320616E7972
:10096C00206B657920001029206B65792076616CED
:10097C0075652069733D20001108303132333435F0
:0B098C003637383941424344454600ED
:0609DF00D2B77F0A7E0082
:1009E500758910E4F53BF53CC3E53C9FE53B9E501E
:1009F5002B85438B853E8DE544454524FF928E30FE
:100A05008FFDE540454124FF928EE539453A24FFA7
:0D0A1500928F053CE53C70D0053B80CC2263
:1008000075A07FE5A0B47706E4F53FAF3F22E5A0F1
:10081000B47B06753F01AF3F22E5A0B47D06753F6E
:1008200002AF3F22E5A0B47E06753F03AF3F2275BD
:10083000A0BFE5A0B4B706753F04AF3F22E5A0B462
:10084000BB06753F05AF3F22E5A0B4BD06753F0668
:10085000AF3F22E5A0B4BE06753F07AF3F2275A0AB
:10086000DFE5A0B4D706753F08AF3F22E5A0B4DBB3
:1008700006753F09AF3F22E5A0B4DD06753F0AAF1C
:100880003F22E5A0B4DE06753F0BAF3F2275A0EF17
:10089000E5A0B4E706753F0CAF3F22E5A0B4EB0638
:1008A000753F0DAF3F22E5A0B4ED06753F0EAF3F9B
:1008B00022E5A064EE6003020800753F0FAF3F22FF
:0C0A3B008F90C2B61209DFC2B70209E5B5
:100A22007F38120A3B7F10120A3B7F0C120A3B7F6F
:090A320006120A3B7F01020A3B97
:0C0A47008F90D2B61209DFC2B70209E599
:10099800120A2274192DF8E6FF6006120A470D8024
:1009A800F2E4FD7FC0120A3B74192DF8E6600C745E
:1009B800292DF8E6FF120A470D80ED120800AC0752
:1009C8007FCE120A3B74082CF8E6FF120A47120879
:0709D80000EFB504E680F713
:030000000208C033
:0C08C000787FE4F6D8FD75814502090739
:1008CC00020998E493A3F8E493A34003F68001F2A1
:1008DC0008DFF48029E493A3F85407240CC8C3332D
:1008EC00C4540F4420C8834004F456800146F6DFFC
:1008FC00E4800B010204081020408090094CE47E37
:10090C00019360BCA3FF543F30E509541FFEE493F0
:10091C00A360010ECF54C025E060A840B8E493A3B7
:10092C00FAE493A3F8E493A3C8C582C8CAC583CAE2
:10093C00F0A3C8C582C8CAC583CADFE9DEE780BE9A
:01099700005F
:00000001FF
