:100D1B0002350061022F00FC023700010233000094
:100D2B00022B0000101341444320492F5020566FD3
:100D3B006C746167650008233D205620202020003D
:0D0D4B000B0830313233343536373839007B
:060CD800D2B77F0A7E0086
:100CDE00758910E4F52DF52EC3E52E9FE52D9E505A
:100CEE002B85368B85308DE537453824FF928E3037
:100CFE008FFDE533453424FF928EE52B452C24FFE2
:0D0D0E00928F052EE52E70D0052D80CC2291
:0C0DA1008F90C2B6120CD8C2B7020CDE54
:100D79007F38120DA17F10120DA17F0C120DA17FDA
:090D890006120DA17F01020DA16B
:030D9200F8E6FF81
:0C0D95008F90D2B6120CD8C2B7020CDE50
:100B6B007580FFE4F5A0C2A6D2A7C2A5120D797FAE
:100B7B0080120DA174132532F8E6FF6007120D9554
:100B8B00053280F0E4F5327FC0120DA174232532BB
:100B9B00F8E6FF6007120D95053280F0120D598FA4
:100BAB0039AC39E4120AA8E4FBFA79A078401208B0
:100BBB00F8E4FBFA797F7843120A018F3D8E3C8D66
:100BCB003B8C3A120ADC8F3EAC3EE4120AA8A80416
:100BDB00A905AA06AB07AF3DAE3CAD3BAC3A12083C
:100BEB0003E4FBFA792078411208F8120ADC8F3FF4
:100BFB00AC3EE4120AA8A804A905AA06AB07AF3DB0
:100C0B00AE3CAD3BAC3A120803E4FBFA79C8784230
:100C1B001208F8120ADCEF75F00A84ADF07FC812E7
:100C2B000DA17408253E120D927F2E120D9574089E
:100C3B00253F120D9274082DF8E6FF120D95020B4D
:010C4B00A701
:100D5900D2A600000000C2A600000020A7FDD2A56F
:100D690000000000858031C2A500000000AF3122DB
:10080000020B48E86480F8E933E83360110460F0D3
:10081000ED33EC337009E8FCE9FDEAFEEBFF22045E
:1008200060DED3EB9FEA9EE99DE8C2E78CF0C2F759
:1008300095F0400CE8CCF8E9CDF9EACEFAEBCFFB25
:10084000120B1385D0F05804700320D5B3E8047060
:10085000075002B2D5020B5292D5EC0460F7E4CCFB
:10086000C0E0C398F8603B94186008400DD0E0FBEE
:10087000020B2AE4FBFAC9FC8028E830E406E4C94C
:10088000FBE4CAFCE830E305E4C9CACBFCE8540742
:100890006010F8C3E913F9EA13FAEB13FBEC13FC4D
:1008A000D8F130F52FC3E49CFCEF9BFFEE9AFEEDF0
:1008B00099FDD0E0FBEF4E4D4C701222DB03020B92
:1008C0004FEC2CFCEF33FFEE33FEED33FDED30E764
:1008D000EB020B2AEF2BFFEE3AFEED39FDD0E0FBE9
:1008E00050130BBB0003020B52ED13FDEE13FEEF92
:0808F00013FFEC13FC020B2ABC
:1008F800EC4D6011E8497017ED33EC3304600DE4FA
:10090800FCFFFEFD22E933E8330470F8020B4812BD
:100918000B1358046009E4CC2481500628500902BE
:100928000B52284003020B4FC0E0EB4A7044B980D9
:1009380006D0E0FB020B3EEF4E701CBD8008EBFFBB
:10094800EAFEE9FD80EBE98DF0A4FEE5F00209E19D
:10095800E9CDF9EAFEEBFFEF89F0A4FCE5F0CE89DA
:10096800F0A42EFFE435F0CD89F0A42DFEE435F097
:100978008067EF4E7005BD80D780C3EF8BF0A4ACC5
:10098800F0EE8BF0A42CFCE435F0F8EF8AF0A42C00
:10099800E5F038FCE433CB8DF0A42CFCE5F03BF813
:1009A800EE8AF0A42CFCE5F038F8E433CF89F0A403
:1009B8002CFCE5F038CF3400CE89F0A42FFFE5F009
:1009C8003EFEE433C98DF0A42EFEE5F039CD8AF061
:1009D800A42FFFE5F03EFEE43DFD33D0E0FB5007D9
:1009E8000BBB000F020B52EC2CFCEF33FFEE33FE77
:0609F800ED33FD020B2AA5
:1009FE00020B52EC5D046005E859047003020B48CB
:100A0E00120B13580460F6EC4860F2EC7004FDFE15
:100A1E00FF22C860DB2481C85009C39860025006CB
:100A2E00020B4F9850CAF582E9294B4A7005AB82EA
:100A3E00020B3E75F0007C1A7880C3EF9BEE9AEDA8
:100A4E0099400DC3EF9BFFEE9AFEED99FDE842F043
:100A5E00DC23ACF0D0E0FFD0E0FED0E0FDAB822096
:100A6E00E7101BEB60BAEC2CFCEF33FFEE33FEED20
:100A7E0033FD020B2AE803F830E705C0F075F000ED
:100A8E00EF2FFFEE33FEED33FD40B830E7C280AA04
:100A9E0075F020800E75F010800575F0087D007ED3
:100AAE00007F003392D530D503120B5DEC3340102E
:100ABE00EF33FFEE33FEED33FDEC33FCD5F0ED22DC
:0E0ACE00E5F0247EA2D513CC92E7CDCEFF2218
:100ADC00EDD2E7CD33EC3392D524814006E4FFFE12
:100AEC00FDFC22FCE4CFCECDCC24E0501174FF8071
:100AFC00EDC3CC13CCCD13CDCE13CECF13CF04700E
:070B0C00F030D5DE020B5DA5
:100B1300E9D2E7C933E833F892D5EDD2E7CD33EC28
:070B230033FC5002B2D522A1
:100B2A00EC30E7100FBF000C0EBE00080DBD00042C
:100B3A000BEB6014A2D5EB13FCED92E7FD2274FFD8
:100B4A00FCFDFEFF22E480F8A2D574FF13FC7D8031
:030B5A00E480EF45
:03000000020C4CA3
:0C0C4C00787FE4F6D8FD75813F020C9320
:0E0B5D00C3E49FFFE49EFEE49DFDE49CFC22A9
:100C5800020B6BE493A3F8E493A34003F68001F23C
:100C680008DFF48029E493A3F85407240CC8C3339D
:100C7800C4540F4420C8834004F456800146F6DF6C
:100C8800E4800B0102040810204080900D1BE47ED4
:100C9800019360BCA3FF543F30E509541FFEE49361
:100CA800A360010ECF54C025E060A840B8E493A328
:100CB800FAE493A3F8E493A3C8C582C8CAC583CA53
:100CC800F0A3C8C582C8CAC583CADFE9DEE780BE0B
:010D5800009A
:00000001FF
