:10090A0002320061022E00FC0234000102300000B3
:10091A00022A0000110820202053204156414E454A
:10092A004554482020200011192020204E4E4D32D7
:0A093A0034454530393220202000FA
:06088C00D2B77F0A7E00D6
:10089200758910E4F52CF52DC3E52D9FE52C9E50AE
:1008A2002B85338B852F8DE534453524FF928E3091
:1008B2008FFDE530453124FF928EE52A452B24FF3A
:0D08C200928F052DE52D70D0052C80CC22E5
:1008CF00E4F5B0F590C2B5D2B51209457F80120993
:1008DF005E74082536F8E6FF600712096A05368050
:1008EF00F0E4F5367FC012095E74192536F8E6FF7D
:0B08FF00600712096A053680F080FED9
:100945007F3812095E7F1012095E7F0C12095E7FE7
:090955000612095E7F0102095E31
:0C095E008F90C2B612088CC2B70208923B
:0C096A008F90D2B612088CC2B70208921F
:03000000020800F3
:0C080000787FE4F6D8FD758136020847C9
:10080C000208CFE493A3F8E493A34003F68001F22B
:10081C0008DFF48029E493A3F85407240CC8C333ED
:10082C00C4540F4420C8834004F456800146F6DFBC
:10083C00E4800B010204081020408090090AE47E39
:10084C00019360BCA3FF543F30E509541FFEE493B1
:10085C00A360010ECF54C025E060A840B8E493A378
:10086C00FAE493A3F8E493A3C8C582C8CAC583CAA3
:10087C00F0A3C8C582C8CAC583CADFE9DEE780BE5B
:0109440000B2
:00000001FF
