:0D0A32004D6963726F2D4C41426C6574007C
:100A1D0002120061020D00FC021400010210000020
:040A2D0002090000BA
:1009E000758910E4F50BF50CC3E50C9FE50B9E50E3
:1009F0002B85138B850E8DE514451524FF928E30C3
:100A00008FFDE510451124FF928EE509450A24FF6C
:0D0A1000928F050CE50C70D0050B80CC22F8
:1009820078167C007D007BFF7A0A79327E007F0D2B
:100992001208D0C2B5D2B5C2A0D2A0758920758D79
:1009A200FD759850D28EE4F50F7416250FF8E6F512
:1009B200993099FDC299050FE50FB40DEC3098FD01
:1009C200859908C298E508B44202C2B5E508B45256
:0E09D20002C2A0E508B44FE5D2A0D2B580DF86
:030000000208F6FD
:0C08F600787FE4F6D8FD75812202093DF0
:10080000E709F608DFFA8046E709F208DFFA803EDA
:1008100088828C83E709F0A3DFFA8032E309F608C7
:10082000DFFA8078E309F208DFFA807088828C832F
:10083000E309F0A3DFFA806489828A83E0A3F608E3
:10084000DFFA805889828A83E0A3F208DFFA804CBD
:1008500080D280FA80C680D4806980F28033801094
:1008600080A680EA809A80A880DA80E280CA8033FD
:1008700089828A83ECFAE493A3C8C582C8CCC58375
:10088000CCF0A3C8C582C8CCC583CCDFE9DEE78045
:100890000D89828A83E493A3F608DFF9ECFAA9F0C4
:1008A000EDFB2289828A83ECFAE0A3C8C582C8CC1A
:1008B000C583CCF0A3C8C582C8CCC583CCDFEADE33
:1008C000E880DB89828A83E493A3F208DFF980CC95
:1008D00088F0EF60010E4E60C388F0ED2402B4048E
:1008E0000050B9F582EB2402B4040050AF23234535
:0608F00082239008507302
:10090200020982E493A3F8E493A34003F68001F280
:1009120008DFF48029E493A3F85407240CC8C333F6
:10092200C4540F4420C8834004F456800146F6DFC5
:10093200E4800B0102040810204080900A1DE47E2E
:10094200019360BCA3FF543F30E509541FFEE493BA
:10095200A360010ECF54C025E060A840B8E493A381
:10096200FAE493A3F8E493A3C8C582C8CAC583CAAC
:10097200F0A3C8C582C8CAC583CADFE9DEE780BE64
:010A310000C4
:00000001FF
