:100B01003F065B4F666D7D077F6F777F393F797158
:100AE90002230061021E00FC022500010221000010
:070AF900021A0000012000B9
:100A8D00758910E4F51CF51DC3E51D9FE51C9E50F1
:100A9D002B85248B851F8DE525452624FF928E30D1
:100AAD008FFDE521452224FF928EE51A451B24FF7B
:0D0ABD00928F051DE51D70D0051C80CC2218
:020A42008F081B
:100A440078097C007D007BFF7A0B79017E007F10A2
:100A54001208D0E50875F00A84FDE50875F00A84EB
:100A6400ACF0E4FBD2B6C2B774092DF8E6F5907F7A
:100A74000A7E00120A8DC2B6D2B774092CF8E6F5C4
:080A840090120A8D0BBB33DC5C
:010A8C002247
:1008F60075A07FE5A0B47706E4F520AF2022E5A039
:10090600B47B06752001AF2022E5A0B47D067520D4
:1009160002AF2022E5A0B47E06752003AF20227523
:10092600A0BFE5A0B4B706752004AF2022E5A0B4A9
:10093600BB06752005AF2022E5A0B4BD06752006CE
:10094600AF2022E5A0B4BE06752007AF202275A011
:10095600DFE5A0B4D706752008AF2022E5A0B4DBFA
:1009660006752009AF2022E5A0B4DD0675200AAF82
:100976002022E5A0B4DE0675200BAF202275A0EF7D
:10098600E5A0B4E70675200CAF2022E5A0B4EB067F
:1009960075200DAF2022E5A0B4ED0675200EAF2020
:1009A60022E5A064EE60030208F675200FAF202250
:100ACA00C2B575A00FD2B575A00F85A019E5196436
:0F0ADA000F60051208F68F20AF20120A4280E845
:030000000209B63C
:0C09B600787FE4F6D8FD7581260209FD6B
:10080000E709F608DFFA8046E709F208DFFA803EDA
:1008100088828C83E709F0A3DFFA8032E309F608C7
:10082000DFFA8078E309F208DFFA807088828C832F
:10083000E309F0A3DFFA806489828A83E0A3F608E3
:10084000DFFA805889828A83E0A3F208DFFA804CBD
:1008500080D280FA80C680D4806980F28033801094
:1008600080A680EA809A80A880DA80E280CA8033FD
:1008700089828A83ECFAE493A3C8C582C8CCC58375
:10088000CCF0A3C8C582C8CCC583CCDFE9DEE78045
:100890000D89828A83E493A3F608DFF9ECFAA9F0C4
:1008A000EDFB2289828A83ECFAE0A3C8C582C8CC1A
:1008B000C583CCF0A3C8C582C8CCC583CCDFEADE33
:1008C000E880DB89828A83E493A3F208DFF980CC95
:1008D00088F0EF60010E4E60C388F0ED2402B4048E
:1008E0000050B9F582EB2402B4040050AF23234535
:0608F00082239008507302
:1009C200020ACAE493A3F8E493A34003F68001F277
:1009D20008DFF48029E493A3F85407240CC8C33336
:1009E200C4540F4420C8834004F456800146F6DF05
:1009F200E4800B0102040810204080900AE9E47EA2
:100A0200019360BCA3FF543F30E509541FFEE493F9
:100A1200A360010ECF54C025E060A840B8E493A3C0
:100A2200FAE493A3F8E493A3C8C582C8CAC583CAEB
:100A3200F0A3C8C582C8CAC583CADFE9DEE780BEA3
:010B000000F4
:00000001FF
