:100A80003F065B4F666D7D077F6F777F393F7971DA
:100A6B0002260061022200FC022800010224000081
:040A7B00021E000057
:100A2E00758910E4F520F521C3E5219FE5209E5040
:100A3E002B85278B85238DE528452924FF928E3023
:100A4E008FFDE524452524FF928EE51E451F24FFCC
:0D0A5E00928F0521E52170D0052080CC226B
:0209D9008F0A83
:1009DB00780B7C007D007BFF7A0A79807E007F108C
:1009EB001208D0E50A75F00A84F51CE50A75F00AC1
:1009FB008485F01DE4F51BD2B6C2B7740B251CF829
:100A0B00E6F5907F0A7E00120A2EC2B6D2B7740B9F
:100A1B00251DF8E6F590120A2E051BE51BD3943223
:020A2B0040D5B4
:010A2D0022A6
:10098200E4F508F509F590D2B4D2B3C2B5D2B520D8
:10099200B3047F0180027F0030B4047E0180027EB6
:1009A20000EE4F60EA30B40375090120B303E4F5A9
:1009B20009E509B4010C0508E508D3940A4003E4EB
:1009C200F508E509700A1508E508B4FF0375080A79
:0709D200AF081209D980CE25
:030000000208F6FD
:0C08F600787FE4F6D8FD75812902093DE9
:10080000E709F608DFFA8046E709F208DFFA803EDA
:1008100088828C83E709F0A3DFFA8032E309F608C7
:10082000DFFA8078E309F208DFFA807088828C832F
:10083000E309F0A3DFFA806489828A83E0A3F608E3
:10084000DFFA805889828A83E0A3F208DFFA804CBD
:1008500080D280FA80C680D4806980F28033801094
:1008600080A680EA809A80A880DA80E280CA8033FD
:1008700089828A83ECFAE493A3C8C582C8CCC58375
:10088000CCF0A3C8C582C8CCC583CCDFE9DEE78045
:100890000D89828A83E493A3F608DFF9ECFAA9F0C4
:1008A000EDFB2289828A83ECFAE0A3C8C582C8CC1A
:1008B000C583CCF0A3C8C582C8CCC583CCDFEADE33
:1008C000E880DB89828A83E493A3F208DFF980CC95
:1008D00088F0EF60010E4E60C388F0ED2402B4048E
:1008E0000050B9F582EB2402B4040050AF23234535
:0608F00082239008507302
:10090200020982E493A3F8E493A34003F68001F280
:1009120008DFF48029E493A3F85407240CC8C333F6
:10092200C4540F4420C8834004F456800146F6DFC5
:10093200E4800B0102040810204080900A6BE47EE0
:10094200019360BCA3FF543F30E509541FFEE493BA
:10095200A360010ECF54C025E060A840B8E493A381
:10096200FAE493A3F8E493A3C8C582C8CAC583CAAC
:10097200F0A3C8C582C8CAC583CADFE9DEE780BE64
:010A7F000076
:00000001FF
